:100000000C94D5150C940E160C940E160C940E161A
:100010000C9477950C9477950C9477950C94779530
:100020000C940E160C940E160C940E160C940E16C0
:100030000C940E160C94937F0C940E160C940E16C2
:100040000C946A7E0C940E160C9412D20C940E161C
:100050000C94F9410C94EF410C940E160C940E166E
:100060000C940E160C940E160C940E160C940E1680
:100070000C940E160C940E160C940E160C940E1670
:100080000C940B3F0C940E160C940E164E414E49D8
:100090004E495459494E46CDCCCC3D0AD7233C1746
:1000A000B7D13877CC2B329595E6241FB14F0A0093
:1000B0000020410000C84200401C4620BCBE4CCA83
:1000C0001B0E5AAEC59D74434F4D4D554E4943418D
:1000D00054494F4E0044525952554E004552524FCA
:1000E000525300494E464F004543484F0053544F2A
:1000F000505045442E20005072696E746572207312
:10010000746F707065642064756520746F2065720B
:10011000726F72732E20466978207468652065724C
:10012000726F7220616E6420757365204D393939A4
:1001300020746F20726573746172742E2028546568
:100140006D70657261747572652069732072657374
:1001500065742E205365742069742061667465721D
:100160002072657374617274696E67290A004E6F3C
:1001700020436865636B73756D2077697468206CC4
:10018000696E65206E756D6265722C204C617374AA
:10019000204C696E653A20004E6F20436865636BA2
:1001A00073756D2077697468206C696E65206E7553
:1001B0006D6265722C204C617374204C696E653AD7
:1001C0002000636865636B73756D206D69736D6185
:1001D0007463682C204C617374204C696E653A20FE
:1001E000004C696E65204E756D62657220697320E2
:1001F0006E6F74204C617374204C696E65204E756F
:100200006D6265722B312C204C617374204C696EC9
:10021000653A20004D3131300053657269616C20C0
:10022000737461747573206D69736D617463680AAA
:100230000053442072656164206572726F720A0017
:10024000746F6F206D75636820696E616374697681
:10025000652074696D65202D2063757272656E74FA
:1002600020636F6D6D616E643A20002121204B493F
:100270004C4C2063617573656420627920004D6584
:1002800064696120496E73657274656400506C65C1
:10029000617365205265736574005052494E544530
:1002A000522048414C5445440025533A20255300E0
:1002B0004B494C4C45442E20005072696E74657257
:1002C0002068616C7465642E206B696C6C28292031
:1002D00063616C6C6564210A006563686F3A004570
:1002E00072726F723A004F4646004F4E0042696C80
:1002F000696E656172204C6576656C696E67204732
:100300007269643A0A004F46460A004661646520F5
:100310004865696768742000426564204C657665AD
:100320006C696E6720004661696C656420746F209B
:10033000656E61626C6520426564204C6576656C13
:10034000696E670A00496E76616C6964206D657339
:10035000682E0A0050726F62696E6720506F696E76
:10036000740025532025692F2569002E0A002F00CF
:1003700050726F62696E67206D65736820706F6977
:100380006E742000202844525952554E290047329D
:1003900039204175746F20426564204C6576656C28
:1003A000696E67003F20284C2C522C462C42292095
:1003B0006F7574206F6620626F756E64732E0A000D
:1003C0003F2856296572626F7365206C6576656C8F
:1003D00020696D706C61757369626C652028302DC1
:1003E00034292E0A00426164205A2076616C7565BA
:1003F0000A004E6F2062696C696E656172206772D7
:1004000069640A0020440020204D3230302053001F
:10041000202844697361626C6564293A0046696CFE
:10042000616D656E742073657474696E6773002006
:10043000204D3230312058004D6178204163636592
:100440006C65726174696F6E2028756E6974732FA4
:100450007332290020204D3230332058004D61780E
:10046000206665656472617465732028756E6974B1
:10047000732F73290020520020204D323034205039
:1004800000416363656C65726174696F6E202875E5
:100490006E6974732F7332292028503C7072696E14
:1004A000742D616363656C3E20523C7265747261A9
:1004B00063742D616363656C3E20543C7472617695
:1004C000656C2D616363656C3E2900204A002054F1
:1004D0000020530020204D32303520420041647608
:1004E000616E6365642028423C6D696E5F73656769
:1004F0006D656E745F74696D655F75733E20533C06
:100500006D696E5F66656564726174653E20543C1A
:100510006D696E5F74726176656C5F666565647245
:100520006174653E204A3C6A756E635F6465763E21
:1005300029002E0A000D0AFA29F729F429206E6FE6
:10054000742064697361626C65642E205368617203
:10055000656420776974680020496E76616C69640F
:100560002065787472756465722000536C656570DF
:100570002E2E2E005A2050726F62652050617374C7
:10058000204265640A005A2050726F6265205061F3
:1005900073742042656400205A3A200020593A20A2
:1005A0000042656420583A20004D65736820706FE2
:1005B000696E74206F7574206F662072616E676556
:1005C0000A00436C69636B20746F20526573756D0C
:1005D000652E2E2E00616C736F20656E61626C65F6
:1005E00064290A004E6F204D6F76652E00456E64BB
:1005F0002066696C65206C6973740A0042656769DE
:100600006E2066696C65206C6973740A004E6F20F9
:100610006D656469610A00534420636172642072ED
:10062000656C65617365640A00286E6F2066696C8D
:1006300065290043757272656E742066696C653A4F
:1006400020004E6F74205344207072696E74696E7E
:10065000670A005344207072696E74696E67206285
:1006600079746520002E0A0044656C6574696F6EAC
:10067000206661696C65642C2046696C653A2000CF
:1006800046696C652064656C657465643A0025692B
:10069000730025696D202569730025696820256927
:1006A0006D20256973002569642025696820256906
:1006B0006D202569730025697920256964202569E5
:1006C000682025696D20256973005072696E742059
:1006D00074696D653A20006F6B006F666600E80014
:1006E000E300DC00D500C70044454255473A004DC1
:1006F0003131322053687574646F776E00416E65D6
:10070000742041382050726F6265204F46462E009B
:10071000434F4E4649475F4558504F5254004D4550
:1007200041545041434B00434F4F4C45525F544559
:100730004D5045524154555245004348414D424564
:10074000525F54454D504552415455524500424127
:1007500042595354455050494E470041524353006B
:100760004D4F54494F4E5F4D4F44455300544845FB
:10077000524D414C5F50524F54454354494F4E00E7
:10078000455854454E4445445F4D3230004355531F
:10079000544F4D5F4649524D574152455F55504C5D
:1007A0004F4144004C464E5F5752495445004C4F10
:1007B0004E475F46494C454E414D45004155544FCB
:1007C0005245504F52545F53445F53544154555314
:1007D0000053445F575249544500524550454154D7
:1007E000004D554C54495F564F4C554D45005344B0
:1007F000434152440050524F4D50545F5355505056
:100800004F525400484F53545F414354494F4E5F39
:10081000434F4D4D414E445300454D455247454E83
:1008200043595F50415253455200434153455F4C39
:10083000494748545F4252494748544E4553530034
:10084000544F47474C455F4C494748545300534F1A
:100850004654574152455F504F5745520042554903
:100860004C445F50455243454E54004C4556454C10
:10087000494E475F44415441005A5F50524F4245F0
:100880000052554E4F5554004155544F4C45564516
:100890004C005052494E545F4A4F420050524F470D
:1008A00052455353004155544F5245504F52545F97
:1008B00054454D50004155544F5245504F52545F8E
:1008C000504F5300564F4C554D45545249430045E7
:1008D0004550524F4D0042494E4152595F46494C96
:1008E000455F5452414E534645520053455249418B
:1008F0004C5F584F4E5F584F4646004649524D5741
:100900004152455F4E414D453A4D61726C696E20D2
:10091000322E312E3220284D617220323420323076
:1009200032342030393A33333A30392920534F5555
:100930005243455F434F44455F55524C3A67697493
:100940006875622E636F6D2F4D61726C696E4669BA
:10095000726D776172652F4D61726C696E205052B5
:100960004F544F434F4C5F56455253494F4E3A31C7
:100970002E30204D414348494E455F545950453A29
:10098000416E65742041382050726F626520455871
:100990005452554445525F434F554E543A312055B9
:1009A0005549443A63656465326132662D3431617C
:1009B000322D343734382D396231322D6335356379
:1009C0003632663336376666002F2F004D313435A8
:1009D00020533C696E6465783E206F7574206F66A5
:1009E0002072616E67652028302D31290A003F4A48
:1009F000206F7574206F662072616E6765202830E5
:100A00002E303120746F20302E33290A00205800F8
:100A10003B200020204D61783A2000200020204D0E
:100A2000696E3A2000203B200020204D32313120D9
:100A3000530046523A0020466C6F773A20003A2025
:100A40000020536572766F2000206F7574206F66EA
:100A50002072616E67650A00536572766F200064CC
:100A6000697300656E0043290A0061626C65642049
:100A7000286D696E2074656D702000436F6C642072
:100A800065787472756465732061726520004D34F9
:100A9000323120696E636F727265637420706172A7
:100AA000616D657465722075736167650A004D65D7
:100AB000736820706F696E74206F7574206F662084
:100AC00072616E67650A004F6666736574732041D4
:100AD00070706C696564004572723A20546F6F20C3
:100AE0006661722100546F6F206661722066726FBA
:100AF0006D207265666572656E636520706F696EE4
:100B0000740A00454550524F4D204F4B0A00290AA8
:100B10000020746F20003F5A206F7574206F66208C
:100B200072616E6765202800290A0020746F20001A
:100B30003F59206F7574206F662072616E67652063
:100B4000282D00290A0020746F20003F58206F755F
:100B500074206F662072616E676520282D004D3805
:100B60003400446F6E65207072696E74696E672020
:100B700066696C650A004D3737004D333100496EA8
:100B800076616C69642065787472756465720A00B8
:100B900020204D323036205800486F6D65206F663A
:100BA00066736574004361703A00203B0020204D5D
:100BB0003835312058005A2D50726F6265204F66CB
:100BC000667365740020573A00436F6F6C696E67F7
:100BD0002E2E2E0048656174696E672E2E2E0045FC
:100BE000312025530020573A0042656420436F6F3F
:100BF0006C696E672E2E2E00426564204865617414
:100C0000696E672E2E2E00A10000006900A2000070
:100C1000006300B00000000900C10000004100C2F4
:100C20000000004100C30000004100C4000000417A
:100C300000C50000004100C60000004145C700009B
:100C4000004300C80000004500C90000004500CD79
:100C50000000004900D10000004E00D50000004F08
:100C600000D60000004F00D70000007800DC000034
:100C7000005500DD0000005900E00000006100E1C7
:100C80000000006100E20000006100E3000000617C
:100C900000E40000006100E50000006100E60000E3
:100CA000006165E70000006300E80000006500E9FE
:100CB0000000006500EA0000006500EB0000006530
:100CC00000EC0000006900ED0000006900EE00008B
:100CD000006900EF0000006900F10000006E00F202
:100CE0000000006F00F30000006F00F40000006FD0
:100CF00000F50000006F00F60000006F00F8000033
:100D0000006F00F90000007500FA0000007500FB9C
:100D10000000007500FC0000007500FD0000007977
:100D200000FF0000007900040100004100050100FF
:100D30000061000601000043000701000063000C91
:100D400001000043000D01000063000E010000449B
:100D5000000F01000064001101000064001901008F
:100D60000065001A01000045001B01000065001F1E
:100D700001000067003001000049003101000069F6
:100D800000410100004C00420100006C00430100E2
:100D9000004E00440100006E00480100006E005843
:100DA00001000052005901000072005A0100005376
:100DB000005B01000073005F010000730060010030
:100DC0000053006101000073006501000074006FB2
:100DD00001000075007C0100007A007D0100005ACE
:100DE000007E0100007A00920100006600E302002C
:100DF000007800222000002E001E210000507822E2
:100E0000210000544D902100003C2D922100002D26
:100E10003EB02100000300BB21000004003C220082
:100E2000007E00482200007E3D60220000213D61DE
:100E30002200003D00642200003C3D652200003E8F
:100E40003DF12300000700A03000003D0021F30128
:100E5000000200C2F401000500A2000000EC00B096
:100E6000000000DF00E4000000E100F6000000EFF9
:100E700000F7000000FD00FC000000F500E30200A8
:100E800000EB0087030000A5008F030000F400982A
:100E9000030000F2009E030000E300A3030000F63D
:100EA00000A9030000F400AC030000E000AD030063
:100EB00000E300B1030000E000B2030000E200B56F
:100EC000030000E300B8030000F200BC030000E4EC
:100ED00000BE030000E300C0030000F700C10300F0
:100EE00000E600C3030000E500902100007F0092AF
:100EF0002100007E001A220000E8001E220000F3FC
:100F00000088250000FF0002300000A1000C300026
:100F100000A2000D300000A3009B300000DE009C0A
:100F2000300000DF00A03000003D00A1300000A72D
:100F300000A2300000B100A3300000A800A43000DF
:100F400000B200A5300000A900A6300000B300A741
:100F5000300000AA00A8300000B400A9300000ABA7
:100F600000AA300000B500AB300000B600AC300085
:100F700000B6DEAD300000B700AE300000B7DEAF27
:100F8000300000B800B0300000B8DEB1300000B969
:100F900000B2300000B9DEB3300000BA00B4300057
:100FA00000BADEB5300000BB00B6300000BBDEB7D3
:100FB000300000BC00B8300000BCDEB9300000BD1D
:100FC00000BA300000BDDEBB300000BE00BC300007
:100FD00000BEDEBD300000BF00BE300000BFDEBF7F
:100FE000300000C000C0300000C0DEC1300000C1D1
:100FF00000C2300000C1DEC3300000AF00C43000CA
:1010000000C200C5300000C2DEC6300000C300C709
:10101000300000C3DEC8300000C400C9300000C486
:10102000DECA300000C500CB300000C600CC300066
:1010300000C700CD300000C800CE300000C900CF8E
:10104000300000CA00D0300000CADED1300000CA33
:10105000DFD2300000CB00D3300000CBDED4300034
:1010600000CBDFD5300000CC00D6300000CCDED77E
:10107000300000CCDFD8300000CD00D9300000CDEA
:10108000DEDA300000CDDFDB300000CE00DC3000E7
:1010900000CEDEDD300000CEDFDE300000CF00DF2E
:1010A000300000D000E0300000D100E1300000D27C
:1010B00000E2300000D300E3300000AC00E4300078
:1010C00000D400E5300000AD00E6300000D500E7B8
:1010D000300000AE00E8300000D600E9300000D754
:1010E00000EA300000D800EB300000D900EC3000FE
:1010F00000DA00ED300000DB00EF300000DC00F231
:10110000300000A600F3300000DD00F4300000B332
:10111000DEF7300000DCDEFA300000A6DEFB300037
:1011200000A500FC300000B000FD300000A4000766
:101130004E0000FB0086510000FC0043530000FA03
:101140000064FF0000A40065FF0000A50066FF002A
:1011500000A60067FF0000A70068FF0000A8006964
:10116000FF0000A9006AFF0000AA006BFF0000ABAF
:10117000006CFF0000AC006DFF0000AD006EFF00D2
:1011800000AE006FFF0000AF0070FF0000B0007104
:10119000FF0000B10072FF0000B20073FF0000B357
:1011A0000074FF0000B40075FF0000B50076FF007A
:1011B00000B60077FF0000B70078FF0000B80079A4
:1011C000FF0000B9007AFF0000BA007BFF0000BBFF
:1011D000007CFF0000BC007DFF0000BD007EFF0022
:1011E00000BE007FFF0000BF0080FF0000C0008144
:1011F000FF0000C10082FF0000C20083FF0000C3A7
:101200000084FF0000C40085FF0000C50086FF00C9
:1012100000C60087FF0000C70088FF0000C80089E3
:10122000FF0000C9008AFF0000CA008BFF0000CB4E
:10123000008CFF0000CC008DFF0000CD008EFF0071
:1012400000CE008FFF0000CF0090FF0000D0009183
:10125000FF0000D10092FF0000D20093FF0000D3F6
:101260000094FF0000D40095FF0000D50096FF0019
:1012700000D60097FF0000D70098FF0000D8009923
:10128000FF0000D9009AFF0000DA009BFF0000DB9E
:10129000009CFF0000DC009DFF0000DD009EFF00C1
:1012A00000DE009FFF0000DF00E5FF00005C0000A3
:1012B000000000010204040000001C1C0C040404D3
:1012C00002010000000000040810000000000003FC
:1012D000002D2D2D2D2D2D007C4D61726C696E7CA5
:1012E0000001002D2D2D2D2D2D002500503A00251B
:1012F00068753A25303268750025303268753A25B0
:1013000030326875002530326875272530326875AF
:101310000020002000200020003A003A00001C1F9E
:1013200011111F00000006191803130C00040E1FF2
:10133000041C000000000E1315110E00001C1018F4
:101340001705060500040A0A0A0A11110E0C1212EA
:101350000C00000000001F1511151F0000426564FD
:1013600000456E636C6F7375726500450020002543
:1013700000202020202020200020002020202000ED
:10138000200020002F00E803000403E8030004020B
:10139000E8030004014400760008E7011902059AF9
:1013A00000CC00079F02D102042D015F010650729C
:1013B000696E742041626F72746564004D3235004D
:1013C00050617573696E672E2E2E004D32340045C4
:1013D0004550524F4D2056657273696F6E204572AD
:1013E000726F7200454550524F4D20496E646578CA
:1013F000204572726F7200454550524F4D20435246
:1014000043204572726F72003F0049676E6F7265CC
:1014100000526573657400496E697469616C697A1C
:101420006520454550524F4D0046696C2E20446959
:10143000612E004F6666004F6E004520696E206D7C
:101440006D5E33004D696E2054726176656C205379
:1014500070656564004D696E2056656C6F636974D4
:1014600079004D61782040205370656564004D61BE
:1014700078204520416363656C004D6178204020F1
:10148000416363656C0054726176656C20416363EF
:10149000656C005265747261637420416363656CAE
:1014A00000416363656C0050726F6265205A204F83
:1014B00066667365740050726F62652059204F66CE
:1014C000667365740050726F62652058204F6666BF
:1014D00073657400402073746570732F6D6D0041E7
:1014E0006476616E6365642053657474696E6773B6
:1014F000003F0043616E63656C00496E6974004D86
:1015000034323800496E697469616C697A652045C6
:101510004550524F4D0046696C616D656E740053C5
:10152000746570732F6D6D0050726F6265204F6629
:101530006673657473004A756E6374696F6E2044D8
:10154000657600416363656C65726174696F6E00F6
:101550004D617820537065656420286D6D2F732967
:101560000053657420486F6D65204F66667365741F
:101570007300436F6E66696775726174696F6E00A0
:10158000414253005045544700504C41003F004EEB
:1015900065787420506F696E7400446F6E65004EFC
:1015A00065787400486F6D696E672058595A00530A
:1015B000572D4D6F64650053746F77004465706CF0
:1015C0006F790053656C662D5465737400526573B2
:1015D000657400426564004E6F7A7A6C65004661FE
:1015E0006E20537065656400436F6E66696775723F
:1015F0006174696F6E00526573746F726520446523
:101600006661756C7473004C6F616420536574740B
:10161000696E67730053746F7265205365747469E3
:101620006E67730050726568656174202420436F93
:101630006E6600424C546F7563680050726F62654D
:10164000205A204F666673657400416476616E634C
:1016500065642053657474696E6773004D61696ECB
:10166000003133300035004245443A204154432094
:1016700031303447542D320052756E6177617920D4
:1016800057617463683A204F4E004D61782054656D
:101690006D7000323735004D696E2054656D7000F5
:1016A000350045313A204154432031303447542DE0
:1016B00032005053550047656E6572696300507281
:1016C0006F746F636F6C00312E300042617564007F
:1016D00031313532303000416E657420312E3500A5
:1016E00042696C696E656172204C6576656C696EE5
:1016F00067004578747275646572730031006D61BE
:10170000726C696E66772E6F726700416E65742029
:1017100041382050726F626500323032322D3038DD
:101720002D303600322E312E32004D61726C696ED2
:1017300000546865726D6973746F727300426F61F3
:10174000726420496E666F005072696E7465722013
:10175000496E666F004D61696E003F004261636BC8
:101760000053746F70004D323200417474616368CD
:10177000204D65646961004D3231005072696E74AC
:101780002066726F6D204D656469610052656C65FD
:10179000617365204D656469610041626F757420F5
:1017A0005072696E74657200436F6E666967757218
:1017B0006174696F6E0054656D70657261747572E5
:1017C00065004D6F74696F6E00526573756D6520AD
:1017D0005072696E740054756E650053746F70209A
:1017E0005072696E74005061757365205072696E35
:1017F0007400496E666F2053637265656E003F002A
:101800005374617274205072696E740043616E6328
:10181000656C005072696E740043616E6E6F742067
:10182000656E746572207375626469723A20000592
:10183000202E2E000452656672657368004D616942
:101840006E002100486F74656E6420746F6F2063B2
:101850006F6C64004261636B0050726F6365656416
:10186000004D6F7665204578747275646572004D21
:101870006F74696F6E0044697361626C65205374A4
:10188000657070657273004D383400426564205491
:1018900072616D6D696E67004661646520486569B7
:1018A000676874004F6666004F6E00426564204CA6
:1018B0006576656C696E67004C6576656C2042657F
:1018C00064004732394E004175746F20486F6D6572
:1018D00000473238004D61696E005072656865617D
:1018E000742024204265640050726568656174202C
:1018F0002420456E640054656D7065726174757264
:101900006500891584158015436F6F6C646F776E61
:10191000005072656865617420240046616E205332
:101920007065656400426564004E6F7A7A6C65008C
:101930004D61696E00466C6F770046616E20537092
:1019400065656400426564004E6F7A7A6C65005389
:1019500070656564004D61696E006F70656E00545E
:101960005249474745524544003A20007A5F6D6925
:101970006E00795F6D696E00785F6D696E0052650B
:10198000706F7274696E6720656E6473746F702017
:101990007374617475730A0020746F6F206C6F6EBE
:1019A0006720657874727573696F6E2070726576E2
:1019B000656E7465640A0020636F6C6420657874DA
:1019C000727573696F6E2070726576656E7465648A
:1019D0000A00486F6D6520257325732573204669BD
:1019E0007273740000000CC2000020C100000000EF
:1019F0005761726E696E673A20486F6D696E672035
:101A000042756D702044697669736F72203C203195
:101A10000A0002020400007F4300006643000070D9
:101A2000430000A0400000A0400000004053544F7D
:101A3000505045442E20005072696E7465722073B8
:101A4000746F707065642064756520746F206572B2
:101A5000726F72732E2046697820746865206572F3
:101A6000726F7220616E6420757365204D3939394B
:101A700020746F20726573746172742E202854650F
:101A80006D7065726174757265206973207265731B
:101A900065742E20536574206974206166746572C4
:101AA0002072657374617274696E67290A0020651B
:101AB00072726F72202D2072657374617274207758
:101AC000697468204D3939390A00424C546F756386
:101AD000680021212053544F502063616C6C656471
:101AE0002062656361757365206F66200000005C8D
:101AF0004300005C430000704300000CC200002063
:101B0000C10000000053657474696E6773205374DC
:101B10006F72656400290A002062797465733B2046
:101B2000637263200053657474696E677320537425
:101B30006F726564202800454550524F4D20496E14
:101B4000697469616C697A65640A004861726463EA
:101B50006F6465642044656661756C7420536574B8
:101B600074696E6773204C6F616465640020286D32
:101B70006D2900203B204C6576656C696E672000FE
:101B800020204D3432302053004175746F2042655F
:101B900064204C6576656C696E67002046002042C3
:101BA0000020480020204D3134352053004D617411
:101BB000657269616C20686561747570207061720E
:101BC000616D657465727300204A002020473239C8
:101BD000205720490020204D3134392043203B201C
:101BE000556E69747320696E2043656C73697573F3
:101BF0000A0054656D706572617475726520556E6A
:101C0000697473002020473231203B004C696E65B7
:101C1000617220556E69747300454550524F4D20D6
:101C20006461746173697A65206572726F722E0ADD
:101C300000290A002062797465733B206372632077
:101C4000002073746F7265642073657474696E67C5
:101C50007320726574726965766564202800202897
:101C600063616C63756C6174656429210A002021CD
:101C70003D2000454550524F4D20435243206D6951
:101C8000736D61746368202D202873746F726564AE
:101C90002920002053697A653A2000496E646578EE
:101CA0003A20000000C8430000C843000000410083
:101CB0000048429A99C8420080C8420000C84300C8
:101CC00000C842D0070000D00700006400000010E8
:101CD000270000204D61726C696E3D563837290A25
:101CE00000454550524F4D2076657273696F6E20E6
:101CF0006D69736D617463682028454550524F4D7E
:101D00003D0020436F756E7420583A0042656400B0
:101D10004531004500626564002C20737973746559
:101D20006D2073746F7070656421204865617465FF
:101D3000725F49443A20004572723A204D4158542E
:101D4000454D50004D415854454D502074726967BF
:101D50006765726564004572723A204D494E54457C
:101D60004D50004D494E54454D502074726967677F
:101D7000657265640048656174696E6720466169D3
:101D80006C65640048656174696E67206661696CA2
:101D9000656400202F002042403A0020403A007C39
:101DA0003C3E5E2B3D3F2F5B5D3B2C2A225C00536B
:101DB000442063617264206F6B0A006F70656E521D
:101DC0006F6F74206661696C65640A00766F6C756C
:101DD0006D652E696E6974206661696C65640A00C0
:101DE0004E6F20534420636172640A000A4D3234FE
:101DF000004D3233202573002E0A006F70656E206F
:101E00006661696C65642C2046696C653A20004601
:101E1000696C652073656C65637465640A002053A2
:101E2000697A653A200046696C65206F70656E6559
:101E3000643A2000454E4420535542524F55544970
:101E40004E450A002220706F730022207061726577
:101E50006E743A2200535542524F5554494E452014
:101E600043414C4C207461726765743A220053758B
:101E70006263616C6C204F766572666C6F770045AB
:101E800078636565646564206D61782053554252BE
:101E90004F5554494E452064657074683A00577236
:101EA0006974696E6720746F2066696C653A2000FA
:101EB000667265736800646F696E67002066696C9E
:101EC000653A20004E6F7720002F6175746F25638F
:101ED0002E67006D61726C696E66772E6F72670097
:101EE0006D61726C696E66772E6F726700322E318B
:101EF0002E3200322E312E3200006D61726C696E0E
:101F000066772E6F7267006D61726C696E66772EF0
:101F10006F72670020322E312E32001000C902107D
:101F2000012C014001220170011801B0010E01F0E5
:101F30000104015002FA00B002F0003003E600D0C4
:101F400003DC009004D2007005C800A006BE0000AB
:101F500008B400B009AA00D00BA000600E96006083
:101F6000118C000015820020197800C01D6E00A0A1
:101F7000226400B0275A00902C500000314600E047
:101F8000343C0010383200903A2800603C1E00A01B
:101F90003D1400803E0A00203F00002020506C616C
:101FA0006E6E657242756666657242797465733AE3
:101FB00020002046726565204D656D6F72793A206C
:101FC0000020436F6D70696C65643A204D6172202A
:101FD000323420323032340A00204C617374205580
:101FE0007064617465643A20323032322D30382D9D
:101FF0003036207C20417574686F723A2028456421
:10200000204C616B652C20416E6574204138205056
:10201000726F6265290A004D61726C696E20322E02
:10202000312E320A0020536F667477617265205238
:10203000657365740A00205761746368646F672074
:1020400052657365740A002042726F776E206F7557
:10205000742052657365740A002045787465726E49
:10206000616C2052657365740A00506F7765725514
:10207000700A0073746172740A004732385859004C
:102080004D31303031006F6B006572726F722077A6
:10209000726974696E6720746F2066696C650A00E6
:1020A000446F6E6520736176696E672066696C6542
:1020B0002E0A004D323900456E6473746F707300E0
:1020C00025532025632025632025632025630020D8
:1020D0005A3A0020593A0020583A00656E647374E9
:1020E0006F7073206869743A2000000000010200DC
:1020F000090A0000000004030807000000000000B7
:102100000000000000000000000024F404D9201B9F
:10211000C40C5C0E9804C4095F0265077101F405E4
:10212000F900FB04B30048048700C10369005803A9
:10213000550003034500BE023A00840231005302F9
:102140002A002902250004022000E4011C00C80125
:102150001900AF01170098011400840113007101E8
:1021600010006101100051010E0043010D00360105
:102170000B002B010B0020010B00150109000C01C5
:10218000090003010800FB000800F3000800EB0051
:102190000700E4000600DE000600D8000600D200BA
:1021A0000600CC000500C7000500C2000500BD0008
:1021B0000400B9000400B5000400B1000400AD0043
:1021C0000400A9000400A5000300A20003009F0072
:1021D00004009B0003009800030095000200930098
:1021E0000300900003008D0002008B0003008800B4
:1021F00002008600020084000300810002007F00CC
:1022000002007D0002007B000200790002007700DE
:1022100001007600020074000200720001007100EB
:1022200002006F0002006D0001006C0002006A00F5
:1022300001006900020067000100660001006500FE
:102240000100640002006200010061000100600002
:1022500001005F0002005D0001005C0001005B0006
:1022600001005A0001005900010058000100570008
:102270000100560001005500010054000100530008
:102280000000530001005200010051000100500005
:1022900001004F0001004E0000004E0001004D0003
:1022A00001004C0001004B0000004B0001004A00FF
:1022B00001004900010048000000480001004700FB
:1022C00001004600000046000100450000004500F6
:1022D00001004400010043000000430001004200EF
:1022E00000004200010041000000410001004000E8
:1022F00001003F0000003F0001003E0000003E00E2
:1023000001003D0000003D0001003C0000003C00D9
:1023100000003C0001003B0000003B0001003A00CF
:1023200000003A00010039000000390001003800C7
:1023300000003800000038000100370000003700BE
:1023400001003600000036000000360001003500B4
:1023500000003500000035000100340000003400AA
:10236000000034000100330000003300000033009F
:102370000100320000003200000032000100310094
:10238000000031000000310001003000000030008A
:102390000000300001002F0000002F0000002F007F
:1023A00000002F0001002E0000002E0000002E0073
:1023B00001002D0000002D0000002D0000002D0068
:1023C00001002C0000002C0000002C0000002C005C
:1023D00001002B0000002B0000002B0000002B0050
:1023E00001002A0000002A0000002A0000002A0044
:1023F0000100290000002900000029000000290038
:10240000000029000100280000002800000028002A
:10241000000028000000280001002700000027001D
:102420000000270000002700000027000100260010
:102430000000260000002600000026000000260004
:1024400001002500000025000000250000002500F7
:1024500000002500000025000100240000002400E9
:1024600000002400000024000000240001002300DC
:1024700000002300000023000000230000002300D0
:1024800000002300000023000100220000002200C1
:1024900000002200000022000000220000002200B4
:1024A00001002100000021000000210000002100A7
:1024B0000000210000002100000021000100200098
:1024C000000020000000200000002000000020008C
:1024D00000002000000020000000200001001F007C
:1024E00000001F0000001F0000001F0000001F0070
:1024F00000001F0000001F0001001E0000001E0061
:1025000000001E0000001E00000024F4D43050C360
:102510008E20C2A24017828B7011127A910D816CAD
:10252000D90AA861E108C7586607615143061E4BE6
:102530005D05C145A7041A411104093D980371398D
:1025400031034036DB0265339102D4305402802ED1
:102550001D02632CEE01752AC501B028A0011027C9
:1025600081018F2564012B244B01E0223401AC2131
:102570001F018D200D01801FFC00841EED00971DA2
:10258000DF00B81CD200E61BC600201BBC00641A8A
:10259000B200B219A8000A19A0006A189900D11750
:1025A000910040178B00B516840031167E00B315DC
:1025B00079003A157300C7146F0058146A00EE13BF
:1025C00066008813630025135E00C7125B006C125F
:1025D000570015125400C111510070114F00211104
:1025E0004B00D61049008D104700461044000210E1
:1025F0004200C00F4000800F3E00420F3C00060F1B
:102600003B00CB0E3800930E37005C0E3500270ED2
:102610003400F30D3200C10D3100900D3000600D1B
:102620002E00320D2D00050D2C00D90C2B00AE0C08
:102630002900850C29005C0C2700350C27000E0CA6
:102640002600E80B2400C40B2400A00B23007D0B04
:1026500023005A0B2100390B2100180B2000F80A27
:102660001F00D90A1E00BB0A1E009D0A1D00800A19
:102670001D00630A1C00470A1B002C0A1B00110ADC
:102680001A00F7091A00DD091900C4091900AB097D
:102690001900920917007B091800630917004C09FB
:1026A000160036091600200916000A091500F5085B
:1026B0001500E0081400CC081400B8081400A408A1
:1026C0001400900813007D0812006B0813005808CE
:1026D00012004608120034081100230811001208E5
:1026E000110001081100F0071000E0071000D007EA
:1026F0001000C0071000B0070F00A10710009107DD
:102700000E0083070F0074070F0065070E005707C0
:102710000E0049070E003B070D002E070E00200794
:102720000D0013070D0006070D00F9060C00ED065D
:102730000D00E0060C00D4060C00C8060C00BC0618
:102740000C00B0060C00A4060B0099060C008D06C8
:102750000B0082060B0077060B006C060B0061066F
:102760000A0057060B004C060A0042060A0038060B
:102770000A002E060A0024060A001A060A0010069D
:10278000090007060A00FD050900F4050900EB052C
:102790000900E2050900D9050900D0050900C705AF
:1027A0000900BE050900B5050800AD050800A5052E
:1027B00009009C050800940508008C0508008405A4
:1027C00008007C050800740508006C050700650515
:1027D00008005D050700560508004E05070047057F
:1027E00007004005080038050700310507002A05E5
:1027F0000700230507001C050600160507000F0546
:1028000007000805060002050700FB040600F504A2
:102810000700EE040600E8040600E2040700DB04FB
:102820000600D5040600CF040600C9040600C30450
:102830000600BD040600B7040600B1040500AC04A0
:102840000600A6040600A00405009B0406009504EB
:102850000500900406008A04050085040500800434
:1028600006007A04050075040500700405006B0479
:10287000050066040500610405005C0405005704BA
:102880000500520405004D040500480405004304FA
:1028900005003E0404003A04050035040500300438
:1028A00004002C04050027040400230405001E0472
:1028B00004001A04040016040500110404000D04A9
:1028C0000400090405000404040000040400FC03DF
:1028D0000400F8030400F4030400F0030400EC0314
:1028E0000400E8030400E4030400E0030400DC0344
:1028F0000400D8030400D4030400D0030400CC0374
:102900000400C8030300C50303003A2E00007B1D2A
:102910000000181100004A090000DB0400007C02DE
:10292000000041010000A10000004D6F76652024E9
:102930006D6D00302E303235004D6F766520302EB3
:10294000316D6D004D6F766520316D6D004D6F7688
:10295000652031306D6D004D6F766520417869736B
:10296000004D6F7665202A004D6F7665204000503F
:1029700072696E742066726F6D204D6564696100C6
:102980002000200020002000486F6D696E672046FF
:1029900061696C656400FFFFFF50726F62696E676A
:1029A000204661696C65640A0050726F62696E67E7
:1029B000204661696C656400205A3A200020593A2B
:1029C000200042656420583A200043616E6E6F74A7
:1029D000206F70656E207375626469722000220A30
:1029E00000556E6B6E6F776E20636F6D6D616E64F8
:1029F0003A202200204500205A0020590020204D76
:102A000039322058005374657073207065722075D8
:102A10006E69740000002200250028002B000000D1
:102A20002100240027002A00020202020202020200
:102A3000040404040404040403030303030303035E
:102A4000010101010101010101020408102040807F
:102A50000102040810204080010204081020408078
:102A600080402010080402014572726F7220777254
:102A70006974696E6720746F20454550524F4D212F
:102A80000A00DB0FC93F45BCDA3F8FB30240FCF0C0
:102A9000274056946140FE4B9B4084A5D840E023DC
:102AA0001841346A5641E859974164DBD5416E2795
:102AB0001742B4B75542CE1A9742C8AED542B58830
:102AC0005A43D40684BFA65FA7BF7443E0BF10B1CA
:102AD0001AC01C2C58C0E8F697C0B849D6C04E4E54
:102AE00017C124D355C1802497C1A0B5D5C1121AEE
:102AF00017C244AE55C2781797C26CACD5C267886E
:102B00005AC320746F6F206C6F6E67206578747283
:102B10007573696F6E2070726576656E7465640A90
:102B20000020636F6C6420657874727573696F6ED2
:102B30002070726576656E7465640A00544845526B
:102B40004D414C2052554E415741590054686572D1
:102B50006D616C2052756E617761790020453A0095
:102B6000205A3A0020593A00583A006F6B0A005236
:102B70006573656E643A2000416E657420413820AB
:102B800050726F62652052656164792E00507269DF
:102B90006E74696E672E2E2E005072696E7420500E
:102BA00061757365640002E210EA11241FBECFEF65
:102BB000D0E4DEBFCDBF84B78093D21214BE0FB66F
:102BC000F894A895809160008861809360001092CD
:102BD00060000FBE12E0A0E0B1E0E8EFFAEE01E025
:102BE0000BBF02C007900D92AA3EB107D9F722E1B0
:102BF000AAEEB2E001C01D92A23DB207E1F715E1D5
:102C0000C4EDD5E104C02197FE010E9401F3C33D4C
:102C1000D107C9F70E9421E30C9470F50C940000D1
:102C20008F929F92AF92BF92CF92DF92EF92FF92DC
:102C30006B017C0120E030E0A9010E9489EE87FD54
:102C40006BC06DEB77E386E095E3A70196010E94E8
:102C50001DF36B017C0120E030E040E251E40E9472
:102C6000EEEE20E030E040E251E40E94EEEE4B0157
:102C70005C0120E030E0A901C701B6010E9489EEA5
:102C800020E030E040EA50E487FF04C020E030E07C
:102C900040EA50ECC501B4010E941DF320E030E091
:102CA00040E251E40E9494F30E94FCF39B018BE20A
:102CB00037FF05C022273327261B370B8DE2809371
:102CC000C503C90164E670E00E94EEF2CB01EAE0C0
:102CD000F0E0BF010E94EEF2805D8093C603C9015F
:102CE000BF010E94EEF2282FCB01BF010E94EEF23D
:102CF000805D8093C7038EE28093C803205D20939C
:102D0000C90385EC93E0FF90EF90DF90CF90BF90E8
:102D1000AF909F908F9008956DEB77E386E095EBF1
:102D200094CF8F929F92AF92BF92CF92DF92EF9209
:102D3000FF92CF936B017C0120E030E0A9010E945B
:102D400089EE87FDC3C06DEB77E386E095E3A701CD
:102D500096010E941DF36B017C0120E030E0A90187
:102D60000E9489EE87FFB7C0C701B601905820E0E6
:102D700030E040E251E40E94EEEE20E030E040E23C
:102D800051E40E94EEEE20E030E040EA50E40E9480
:102D90001DF320E030E040E251E40E9494F30E94F1
:102DA000FCF36B017C0160E280EAC81686E8D80675
:102DB00081E0E806F1048CF0C701B60120EA36E8AC
:102DC00041E050E00E9486F2CA01B9012AE030E0F9
:102DD00040E050E00E9486F2605D6093C30360E2D1
:102DE00080E1C81687E2D806E104F1048CF0C7013F
:102DF000B60120E137E240E050E00E9486F2CA01CD
:102E0000B9012AE030E040E050E00E9486F2605DC7
:102E10006093C40360E288EEC81683E0D806E1043C
:102E2000F1048CF0C701B60128EE33E040E050E039
:102E30000E9486F2CA01B9012AE030E040E050E089
:102E40000E9486F2605D6093C50360E284E6C81666
:102E5000D104E104F1048CF0C701B60124E630E0AE
:102E600040E050E00E9486F2CA01B9012AE030E059
:102E700040E050E00E9486F2605D6093C6038AE005
:102E8000882E912CA12CB12CC701B601A50194016B
:102E90000E9486F2C62FCA01B901A50194010E94C1
:102EA00086F2605D6093C7038EE28093C803C05DC5
:102EB000C093C90383EC93E0CF91FF90EF90DF9034
:102EC000CF90BF90AF909F908F9008956DEB77E378
:102ED00086E095EB3CCF20E030E040E251E4C701D2
:102EE000B60149CF8F929F92AF92BF92CF92DF925D
:102EF000EF92FF92CF936B017C0120E030E0A901BB
:102F00000E9489EE87FD93C06DEB77E386E095E341
:102F1000A70196010E941DF36B017C0120E030E0C7
:102F200040E251E40E94EEEE20E030E04AE754E453
:102F30000E94EEEE4B015C0120E030E0A901C701E8
:102F4000B6010E9489EE20E030E040EA50E487FFBD
:102F500004C020E030E040EA50ECC501B4010E941A
:102F60001DF320E030E040E251E40E9494F30E941F
:102F7000FCF36B017C01C114D104E104F10409F4F8
:102F80005BC0F7FE59C0F094E094D094C094C11C8B
:102F9000D11CE11CF11C8DE28093C403C701B60172
:102FA00028EE33E040E050E00E9486F28AE0882E6E
:102FB000912CA12CB12CCA01B901A50194010E9448
:102FC00086F2605D6093C5038EE28093C603C701FD
:102FD000B60124E630E040E050E00E9486F2CA01EB
:102FE000B901A50194010E9486F2605D6093C70358
:102FF000C701B601A50194010E9486F2C62FCA013D
:10300000B901A50194010E9486F2605D6093C80336
:10301000C05DC093C90384EC93E0CF91FF90EF9023
:10302000DF90CF90BF90AF909F908F9008956DEB01
:1030300077E386E095EB6CCF80E2AECFCF93DF9362
:10304000EC01CB01BA010E948FEE20E030E040E2BB
:1030500051E40E9494F3688379838A839B83DF9190
:10306000CF910895CF93DF93EC01CB01BA010E9479
:103070008FEE20E030E040E251E40E9494F3688358
:1030800079838A839B83DF91CF9108950E948FEE8D
:1030900020E030E040E251E40E9494F342CECF932E
:1030A000DF93EC01CB01BA010E948FEE20E030E00B
:1030B00048EC52E40E9494F3688379838A839B836B
:1030C000DF91CF9108950E948FEE20E030E040E242
:1030D00051E40E9494F3A4CDCF93DF93EC01CB0194
:1030E000BA010E948FEE2AE037ED43E25DE30E94D1
:1030F00094F30E9401F4688379838A839B83DF9130
:10310000CF910895CF93DF93EC01CB01BA010E94D8
:103110008FEE2AE037ED43E25DE30E9494F368838B
:1031200079838A839B83DF91CF910895CF93DF9337
:10313000EC01CB01BA010E948FEE688379838A8308
:103140009B83DF91CF910895CF93DF93EC01CB0167
:10315000BA010E948FEE20E030E04AE754E40E947A
:1031600094F3688379838A839B83DF91CF91089559
:103170000E948FEE20E030E04AE754E40E9494F38E
:10318000B1CEFC0184910895FC0180810895AF9235
:10319000BF92CF92DF92EF92FF920F931F93CF9344
:1031A000DF93EC015B018A01FB01099587FD16C0E5
:1031B000C82ED12CF12CE12C2196F801C082D182AD
:1031C000E282F382CE01DF91CF911F910F91FF90A8
:1031D000EF90DF90CF90BF90AF900895982F907EA2
:1031E000903CA9F48F7190E0B0E0A0E06C017D010B
:1031F00056E0CC0CDD1CEE1CFF1C5A95D1F7CE011D
:103200000196F50109958F73C82A2296D6CF982F7B
:10321000907F903E11F58F7090E0B0E0A0E06C01DF
:103220007D0136E0CC0CDD1CEE1CFF1C3A95D1F77D
:10323000CE010196F50109958F73C82A46E0CC0CA2
:10324000DD1CEE1CFF1C4A95D1F7CE010296F5015C
:1032500009958F73C82A2396B0CF982F987F903FF7
:1032600079F5877090E0B0E0A0E06C017D0186E028
:10327000CC0CDD1CEE1CFF1C8A95D1F7CE0101960B
:10328000F50109958F73C82A96E0CC0CDD1CEE1C65
:10329000FF1C9A95D1F7CE010296F50109958F731F
:1032A000C82A26E0CC0CDD1CEE1CFF1C2A95D1F7A9
:1032B000CE010396F50109958F73C82A24967DCF18
:1032C000982F907C903841F4807C803869F4219666
:1032D000CE01F5010995F8CF8E7F8D3F28F021961C
:1032E000CE01F5010995F8CFC12CD12C760165CF1F
:1032F000CF93DF93C091B805D091B90581E0CE316D
:10330000D105E4F020E030E040E05FE36091B405F7
:103310007091B5058091B6059091B7050E941DF397
:103320000E94FCF36C1B7D0B77FF03C071956195C8
:10333000710981E0633071050CF080E0DF91CF917D
:103340000895CF93DF93DB01F9019C919130C1F097
:10335000943080F094509C938830D1F48081918196
:10336000009771F0019791838083480F591FEA01FC
:10337000188206C08C3539F49C5F9C93943041F4DC
:10338000DF91CF9108958B3339F781E08C93F8CF9B
:1033900020813181B9016F5F7F4F71836083420F5C
:1033A000531FEA018883808191818F3591056CF7E5
:1033B000E7CF0F931F9381E00091F2111091F31169
:1033C0002091F4113091F5114091EE115091EF11CF
:1033D0006091F0117091F111041715072607370756
:1033E00008F480E01F910F91089590E080E0089527
:1033F00020914003833021F425FD0CC024FD0CC036
:1034000030E0A90102C0559547958A95E2F7CA01B7
:103410008170089581E0089580E0089580915B03B4
:1034200084FD0BC080915D0387FD07C090915E0312
:10343000937081E019F480E0089581E008952FEB06
:10344000280F2A3108F047C0E22FF0E080915B039B
:1034500090915C03A0915D03B0915E0304C0B695AA
:10346000A795979587952A95D2F780FD02C0817020
:103470000895EF5BFC4FE081EE2341F18091FD0563
:103480009091FE05E80FF92FF11D808190ED980FC6
:103490009A3030F08E3251F4818180538A3098F422
:1034A000F0933603E093350381E008958D3211F0F7
:1034B0008B3249F4818190ED980F9A3088F38E32E7
:1034C00011F48281EACFF0E0E0E0EACF1092360317
:1034D00010923503E9CF80E00895CF93DF9385E420
:1034E000AEDF882309F188E040915B0350915C03D3
:1034F00060915D0370915E03972F9170C92F90E0EA
:10350000D92FCC0FDD1F71FB222720F930E0220FCD
:10351000331F220F331FC22B67FB442740F9C42BF4
:103520008C2BDF91CF91089580E0DECF88DF882358
:1035300041F081E02091350330913603232B09F4CB
:1035400080E0089580E090E0A0EAB0E480935E011E
:1035500090935F01A0936001B093610185ED91E0CC
:103560000E94CE8FE091C00380E090E0ACEDB2E429
:10357000E43009F44AC080E090E0A0EFB1E4809329
:10358000560190935701A0935801B093590180932D
:103590005A0190935B01A0935C01B0935D01EE0F23
:1035A000FF0BEB54FE4F808191818330910549F1EF
:1035B00084309105D9F1029761F480E090E0AEE3A8
:1035C000B3E48093560190935701A0935801B093B0
:1035D00059018DEB91E00E94CE8F10925E01109206
:1035E0005F01109260011092610185ED91E00E94EF
:1035F000CE8F8091C0038F5F8530ECF48093C00341
:10360000089580E090E0AEE3B3E480935601909398
:103610005701A0935801B093590180935A01909398
:103620005B01A0935C01B0935D01D3CF80E090E09B
:10363000AEE3B3E4F2CF1092C0030895CF93DF93CB
:1036400000D000D0CDB7DEB70E9401F40E948DEE0D
:1036500069837A838B839C83CE0101960E94649652
:103660000F900F900F900F90DF91CF9108950E94CF
:103670008FEE2AE037ED43E25DE30E9494F3DECF64
:10368000CF92DF92EF92FF92CF93DF9300D000D0E2
:10369000CDB7DEB76B017C0120E030E0A9010E94CC
:1036A00089EE87FD1BC06DEB77E386E095E3A7010C
:1036B00096010E941DF369837A838B839C83CE01DC
:1036C00001960E9464960F900F900F900F90DF91DB
:1036D000CF91FF90EF90DF90CF9008956DEB77E35F
:1036E00086E095EBE4CF0E948FEE2AE037ED43E2CF
:1036F0005DE30E9494F3C4CF0E948FEEC1CF0E947D
:103700008FEE20E030E048EC52E40E9494F30C94F9
:10371000A8A30C94CB840C94CB840C947D840C943F
:103720007D840C947D840C947D84CF92DF92EF9203
:10373000FF920F931F930E942CD10091710310915F
:10374000720320917303309174036B017C01C01AE2
:10375000D10AE20AF30A9701860137FD11C02091D0
:1037600070032095209370036A547C4F8F4F9F4FB6
:103770006093710370937203809373039093740347
:1037800081E090917003911101C080E01F910F9131
:10379000FF90EF90DF90CF900895CF93DF93C0918B
:1037A000B805D091B905209729F16091B4057091C1
:1037B000B5058091B6059091B7050E94FCF36E5F48
:1037C0007F4F24976C177D07ACF470935604609379
:1037D00055040E942CD1605E70448D4F9F4F6093C2
:1037E0005704709358048093590490935A04DF91BE
:1037F000CF910895109257041092580410925904D2
:1038000010925A04F4CFCF92DF92EF92FF920F936F
:103810001F93CF93DF93CDB7DEB728970FB6F894F9
:10382000DEBF0FBECDBF8E010F5F1F4FD80130E04E
:1038300020E0FB01E20FF31FE491ED932F5F3F4F78
:1038400028303105B1F7877098E0899FB0011124C5
:10385000606486EC90E10E945CD283E790E001977F
:10386000F1F77801E8E0EE0EF11C8BE9C82ED12CBF
:10387000F80161918F0186EC90E10E94CEB2C60101
:103880000197F1F7E016F10699F728960FB6F8942C
:10389000DEBF0FBECDBFDF91CF911F910F91FF9083
:1038A000EF90DF90CF900895CF92DF92EF92FF924A
:1038B0000F931F93CF93DF9300D000D000D0CDB7EC
:1038C000DEB78A0146E0469F9001479F300D1124E4
:1038D000BC01620F731F46E050E0CE0101960E94CA
:1038E000B2EDC980DA80EB80FC80F8014081518123
:1038F000628173818FEF9FEFC416D506E606F70647
:1039000040F081E090E04C155D056E057F0508F004
:1039100080E026960FB6F894DEBF0FBECDBFDF91D4
:10392000CF911F910F91FF90EF90DF90CF9008956E
:103930000F931F93CF93DF93CDB7DEB72E970FB6BC
:10394000F894DEBF0FBECDBF8B011E861D86FC0125
:1039500060817181828193816F83788789879A875B
:103960002FEF2B87603871058105910538F486ECBF
:1039700090E10E94CEB281E090E02FC09E01235FD3
:103980003F4FAE01495F5F4F69EB70E089E59EE014
:103990000E9419C397FD2CC08D859E8526E0289F27
:1039A000B001299F700D1124675A714F46E050E015
:1039B000CE0101960E94B2ED6D8186EC90E10E94ED
:1039C000CEB201301105B9F26E816623A1F286EC08
:1039D00090E10E94CEB282E090E02E960FB6F8946D
:1039E000DEBF0FBECDBFDF91CF911F910F91089524
:1039F0009E01235F3F4FAE01495F5F4F63E670E07A
:103A000087E09CE00E9419C397FD0BC08D859E85C1
:103A100026E0289FB001299F700D1124695F734F24
:103A2000C5CF6FE3A4CF8091350390913603009703
:103A300031F04AE050E070E060E00C94AAEC60E005
:103A400070E0CB0108958091350390913603009783
:103A500031F04AE050E070E060E00C947FEB60E011
:103A600070E0CB010895EFDF97FD0AC0ECDF6F3FF8
:103A700071058105910509F02CF4E5DF862F089585
:103A800080E008958FEF0895CF93C62F4FDD8823F0
:103A900011F0CF91E8CF8C2FCF910895809135030D
:103AA00090913603892B39F0DEDF91E0811101C05E
:103AB00090E0892F089591E0FCCFCF93DF93C82F3A
:103AC000D62F34DD882319F0DF91CF91E7CF8C2FEB
:103AD000B6DC811101C08D2FDF91CF910895B3DF46
:103AE000CB010895CF93DF93EB0120DD882319F0FC
:103AF000DF91CF91F4CFCE01DF91CF9108950F9355
:103B00001F93CF938091350390913603009709F16D
:103B1000FC018F01C1912C2F2F7DA1F0C53431F014
:103B2000C53621F0C83511F0C83799F7F801108271
:103B300070E060E00E942AEAF801C083CF911F91F3
:103B40000F91089570E060E0CF911F910F910C9458
:103B50002AEA60E070E0CB01F1CFCF92DF92EF92E2
:103B6000FF926A017B01E2DC882329F0FF90EF904D
:103B7000DF90CF90C4CFC701B601FF90EF90DF90E8
:103B8000CF900895382F8FEF80930B011092F80596
:103B90008091E3059091E405A091E505B091E605DB
:103BA000B7FF08C01092E3051092E4051092E505F6
:103BB0001092E6052091E3052093D3051092F305BA
:103BC0008091CD051816ECF4082E000C990B831B80
:103BD0009109022E000C330B2817390794F097FF38
:103BE00002C090E080E08093D305092E000CAA0B60
:103BF000BB0B8093E3059093E405A093E505B09398
:103C0000E6058091D3056623A9F09091D90589171F
:103C100014F48093D9052091D905022E000C330BA2
:103C20002D5F3F4F482F082E000C550B24173507EA
:103C30001CF483508093D9050895E091BC03E630CD
:103C400028F581E08E0F8093BC034091E3055091ED
:103C5000E4056091E5057091E6052091D905909104
:103C6000CD058091C20339E0E39FF0011124EA57AA
:103C7000FC4FA091C410B091C510B183A0834283C2
:103C800053836483758326839783808708950C9478
:103C90004F810C947FA80C945792CF93DF93CDB7AC
:103CA000DEB78D81282F082E000C330B9091131056
:103CB0009217130609F08CF4809313109E01285F6D
:103CC0003F4F4E815F8168E270E08AEE9FE00E9484
:103CD00051EE1092E90F1092E80FDF91CF91089505
:103CE0000F931F93CF93DF938C016F3F19F41092C2
:103CF000131060E020911310862F062E000C990BF4
:103D00002817190609F014F560931310C8010E94D2
:103D1000D8ED800F911FEC01C01BD10BC932D1052A
:103D20003CF00197FC012491207C2038D1F3F3CFA3
:103D3000DD27AE01B8018AEE9FE00E94F9EDC65181
:103D4000D04F18821092E90F1092E80FDF91CF91B7
:103D50001F910F9108950F931F930E942CD10091F2
:103D6000B20D1091B30D2091B40D3091B50D601BC3
:103D7000710B820B930B97FD49C01092B70D809188
:103D8000B60D811143C080915B0490915C04409713
:103D900008F443C020913C0130913D0180E094E063
:103DA000A0E0B0E080933C0190933D01A0933E01E0
:103DB000B0933F0110925C0410925B04283E83E0B4
:103DC000380758F590E080E0FC01EA57FC4E659119
:103DD0007491FC01E857FC4E459154912617370722
:103DE000C0F042175307A8F0FC01E657FC4EE491DF
:103DF0008FEF8E0F883050F4E150FF0B81E090E0A0
:103E000001C0880FEA95EAF78093B60D1F910F91D4
:103E10000895059688329105B9F6E0E0E9CFCF9292
:103E2000DF92EF92FF92CF93C82F0E942CD16B01AB
:103E30007C0124EA30E74DE75FE360910C0170916B
:103E40000D0180910E0190910F010E9489EE87FD76
:103E500018C08AEF90E0A0E0B0E08C0D9D1DAE1D73
:103E6000BF1D8093790390937A03A0937B03B09353
:103E70007C03C0930A01CF91FF90EF90DF90CF9029
:103E8000089580E090E0DC01E8CFFC0180E030970D
:103E900049F09491992331F0907C903809F08F5F2C
:103EA0003196F7CF0895009751F0FC0180E0919191
:103EB000992331F0907C9038D1F38F5FF8CF80E078
:103EC000089565E573E180E09EDC6DE473E181E0D7
:103ED0009ADC65E473E182E096DC6DE373E186E0F1
:103EE00092DC65E373E187E08EDC6DE273E183E0F1
:103EF0008ADC65E273E184E086DC6DE173E185E0F4
:103F000082CCCF93823061F4C4E0C15058F088E095
:103F1000C89FB001112461557D4E8C2F74DCF5CF04
:103F2000CF91CFCFCF9108950F931F93522F209110
:103F3000C4103091C51028173907A1F11092F3036E
:103F40009093C5108093C4108B0130E020E0009363
:103F5000E3051093E4052093E5053093E6054093CF
:103F6000D9055093CD058759944221F41092C2038C
:103F70001092BC0386EC90E10E9464D281E0209113
:103F8000C4103091C5102759344209F080E0B9DFE0
:103F900082E08093660181E08093F30580930B01BA
:103FA0001092BF031F910F91089520E040E070E050
:103FB00060E087E994E2B8CF0E9457920E944F8157
:103FC000882319F080E00E946580EFCF8FEF94E1A5
:103FD0009093AD058093AC05E8CFCF93DF93C0916C
:103FE000BC03CC23B1F0C150C093BC0389E0C89F8F
:103FF000E0011124CA57DC4F6A817B812F814E81F9
:104000008881998191DF88858093C203DF91CF9168
:104010000895DF91CF91C9CF8093DC0520E040E087
:1040200070E060E082ED93E27FCFCF9380917E03DA
:10403000811109C080EC93E19093BE038093BD038E
:1040400081E080937E03F9DD20E040E070E060E0F5
:1040500081E894E269DFC1E0C093C2030E94EE846C
:104060001092C203BADFC093C20360E089E99BE209
:1040700037DE8CEB93E19093AD058093AC05CF9147
:10408000089520E044E064E186EC90E10E946BD268
:1040900081E02091C4103091C5102759344209F0B5
:1040A00080E02FDF86EC90E10C9464D26FEF7FEF1D
:1040B0003FCCAF92BF92CF92DF92EF92FF920F93DD
:1040C0001F93CF93DF9300D000D0CDB7DEB76C0144
:1040D0005B017A0110E000E00E151F05C0F4AE018F
:1040E0004F5F5F4FB501C60152D86C0189819A813B
:1040F000AB81BC81892B8A2B8B2B49F0B701601BCC
:10410000710BCE01019614DC080F191FE5CFC80111
:104110000F900F900F900F90DF91CF911F910F9103
:10412000FF90EF90DF90CF90BF90AF9008954FEF4A
:104130005FEF64EC78E1BDCF4FEF5FEF61EC78E1CA
:10414000B8CF8F929F92AF92BF92CF92DF92EF92B1
:10415000FF920F931F93CF93DF93CDB7DEB72897CE
:104160000FB6F894DEBF0FBECDBF7C01162F5A01EB
:104170004901862F660F990B9C012F543E4F690110
:104180001016D4F5AE014B5F5F4F61EC78E1C701CB
:104190000E94C7187C018D819E81AF81B8850097F0
:1041A000A105B10549F18D339105A105B10509F4CA
:1041B0006EC08E379105A105B10509F468C08A3239
:1041C0009105A105B10561F517FF0FC081E693E1E7
:1041D0001E3F11F08DE593E1402F002E000C550B92
:1041E00061EC78E166DF081B8AC08BE693E1A4DF0F
:1041F000015009F04EC000E0802F28960FB6F894C9
:10420000DEBF0FBECDBFDF91CF911F910F91FF9009
:10421000EF90DF90CF90BF90AF909F908F900895D8
:1042200084329105A105B105C1F48114910451F0C6
:10423000402F002E000C550B61EC78E1C40139DFF2
:10424000081B9ECFA114B104E9F0402F002E000CF2
:10425000550B64EC78E1C501F2CF80349105A105DE
:10426000B10581F40150F6018081082E000C990BF4
:10427000AA0BBB0B89839A83AB83BC83CE010196C7
:1042800015DF7ECFCE01059611DF015079CF17FDE6
:104290009DCF81E04D815E816F8178854D335105E1
:1042A0006105710509F480E0810F8A30C4F0015086
:1042B0006AE00E94CDF2192F082E000C990BC096CF
:1042C000092E000CAA0BBB0B89839A83AB83BC839A
:1042D000CE010196EBDE002309F48DCF812F082E4D
:1042E000000C990BC096092E000CAA0BBB0B8983FE
:1042F0009A83AB83BC83CE010196D8DE01500023A4
:1043000009F479CF402F002E000C550B61EC78E1B9
:10431000C701CFDE081B70CF0F931F93CF93DF939E
:10432000CDB7DEB728970FB6F894DEBF0FBECDBF6E
:1043300000916701109168012091690130916A0133
:104340000D831E832F83388700916B0110916C01C0
:1043500020916D0130916E0109831A832B833C8378
:104360009091CD10691710F06FEF690F262F30E094
:104370004091CE102C0F3D1FF901403199F494303B
:1043800089F46181680F606886EC90E128960FB629
:10439000F894DEBF0FBECDBFDF91CF911F910F917B
:1043A0000C945CD26581EECFFC01A081B1811C929E
:1043B000A281B3818C918F5F8C930280F381E02D79
:1043C000608180E0A9CF4F925F926F927F928F922F
:1043D0009F92BF92CF92DF92EF92FF920F931F9323
:1043E000CF93DF93CDB7DEB728970FB6F894DEBF33
:1043F0000FBECDBF7C013B016A014901FB01608119
:10440000FC01808189DFC114D10469F1FA82E9825B
:104410007C826B82011120C0AE014B5F5F4FB40103
:10442000C6010E94C7186C018D819E81AF81B8853D
:10443000892B8A2B8B2BB9F0CE01059637DEF7013D
:1044400080818F5F8083843138F3CE010196ACDFA9
:10445000E3CFB12C860129C08601B12C26C04528A6
:1044600046284728B1F728960FB6F894DEBF0FBE4E
:10447000CDBFDF91CF911F910F91FF90EF90DF9013
:10448000CF90BF909F908F907F906F905F904F9054
:104490000895B39407C0B1102EC001151105C9F2DB
:1044A0000F5F1F4F01151105A9F2AE014B5F5F4F62
:1044B000B401C6010E94C7186C014D805E806F80F8
:1044C00078844114510461047104A9F0F0E24F169C
:1044D000510461047104F9F2D301C2018D97A1095D
:1044E000B1090297A105B10530F04BE24416510421
:1044F0006104710471F6F7018081482F4B0D552737
:10450000551F453151052CF0853018F0CE0101962C
:104510004BDF81E0411451046104710409F480E02F
:10452000B80EF70180818B0D8083BB2009F497CFF3
:10453000BA94AE014B5F5F4FB401C8010E94C71827
:104540008C01CE010596B2DDF0CF2F923F924F92B3
:104550005F926F927F928F929F92AF92BF92CF9213
:10456000DF92EF92FF920F931F93CF93DF9300D0D0
:1045700000D000D0CDB7DEB74C013B015A012E83ED
:10458000232E280181E08093C2034091E3055091DE
:10459000E4056091E5057091E60541155105610559
:1045A000710571F0141615060CF080E08093BF03BE
:1045B0001092E3051092E4051092E5051092E605CD
:1045C0001091BF033090CE051092CE05311005C07A
:1045D00080916601882309F4ACC0C20156DC082F23
:1045E00080E0C114D10411F0C6014FDC1D82198294
:1045F000E114F104B1F4402F50E0282F30E0CA015B
:10460000820F931F45976CF484E190E0841B950B17
:10461000821B930B97FD0196959587958D8381E07D
:10462000898301E021EC38E1A201BE016F5F7F4F79
:10463000CE010596C8DEE114F10489F08D8188234E
:1046400021F01D8289818F5F898300E024EC38E1AD
:10465000A701BE016F5F7F4FCE010596B4DEC11486
:10466000D10451F000E021EC38E1A601BE016F5FFA
:104670007F4FCE010596A7DE63E080E04DDE8BE53F
:1046800090E0A0E0B0E0112321F080E290E0A0E013
:10469000B0E089839A83AB83BC83CE01019606DDAB
:1046A000C3014ADD8DE590E0A0E0B0E0112321F0E8
:1046B00080E290E0A0E0B0E089839A83AB83BC8382
:1046C000CE010196F3DCC401E0DB63E092E1981BCC
:1046D000892F22DE80E290E0A0E0B0E0112321F0FB
:1046E0008BE590E0A0E0B0E089839A83AB83BC8344
:1046F000CE010196DBDCC4011FDD80E290E0A0E08A
:10470000B0E0112321F08DE590E0A0E0B0E08983D6
:104710009A83AB83BC83CE010196C8DC332049F079
:10472000111102C0AE80B22CA114B104D9F0F50170
:10473000099526960FB6F894DEBF0FBECDBFDF9168
:10474000CF911F910F91FF90EF90DF90CF90BF908E
:10475000AF909F908F907F906F905F904F903F9021
:104760002F9008953ADCE5CFCF92DF92EF92FF923F
:104770000F931F9381EFC82E84E1D82EF12CE12CEA
:1047800004E015E130E020E04CED5FE163EF74E11F
:104790008AEF94E1DADE1F910F91FF90EF90DF90A6
:1047A000CF900895AF92BF92CF92DF92EF92FF9297
:1047B0000F931F93CF93DF93CDB7DEB7ADB6BEB6E1
:1047C00087E194E162DB90E001962DB73EB7281BAC
:1047D000390B0FB6F8943EBF0FBE2DBF8DB79EB7F5
:1047E00001967C0167E174E10E94D1ED8091DC05C6
:1047F00004EE13E1813031F00FEC13E1823011F05F
:1048000007EF13E188E0C82E84E1D82E25ED3FE1C3
:104810004CED5FE16AE074E181E194E196DE0FB670
:10482000F894BEBE0FBEADBEDF91CF911F910F9128
:10483000FF90EF90DF90CF90BF90AF900895CF9210
:10484000DF92EF92FF920F931F93CF93DF937B0141
:10485000142FE901682F80E05FDDC12CE114F10421
:1048600019F0C70112DBC82ED12C209719F0CE0108
:104870001ADBD82E04E110FF1AC084E190E08C19F5
:104880009109C7FC93958D199109D7FC939597FDD4
:1048900001969595879504E11BEE180F812F800FE7
:1048A00087FD05C083E193E147DC0150F7CFCC20C1
:1048B00069F02091D6053091D7054091D4055091EB
:1048C000D5056091D805C7013CDC082FDD2049F0F3
:1048D000402F002E000C550B64EC78E1CE01E9DB93
:1048E000081B10162CF481E193E126DC0150F9CF6E
:1048F000DF91CF911F910F91FF90EF90DF90CF90BC
:10490000089580916601882349F06091BD037091FC
:10491000BE0330E020E041E081E091CF0895CF93E5
:10492000DF93EA01F9DCCE01DF91CF91BFCB8F920B
:104930009F92AF92BF92CF92DF92EF92FF920F932E
:104940001F93CF93DF9300D000D0CDB7DEB7109286
:10495000F805E091E80FF091E90F309721F0099503
:1049600081110E9494C38091CE051092CE058823B8
:10497000C1F020E040E070E060E08DE590EAD4DA3C
:104980000F900F900F900F90DF91CF911F910F918B
:10499000FF90EF90DF90CF90BF90AF909F908F905F
:1049A000089520911001309111014091E30550913B
:1049B000E405CA01820F931F2436310509F001C1B5
:1049C0004330510544F002978A3091050CF008C13C
:1049D0008AE090E00FC102964E3F5F4FACF30E9419
:1049E000951B182F60E080E097DC20E030E040E08D
:1049F0005FE360916104709162048091630490911F
:104A000064040E941DF30E94FCF34B01E0906504D6
:104A1000F090660482E090E0A0E0B0E089839A83A1
:104A2000AB83BC83CE01019641DB88EC92E097FC1E
:104A300003C0C4010E9491977ADB84E893E17CDB98
:104A4000C7010E94669773DB81E090E0A0E0B0E0D0
:104A500089839A83AB83BC83CE01019627DB82E8EE
:104A600093E16ADBFAE0EF16F1041CF480E893E1CD
:104A700063DB60E08AE050DC112329F080910504BB
:104A80000FE5811101C000E020E030E040E05FE38D
:104A90006091B4057091B5058091B6059091B70508
:104AA0000E941DF30E94FCF34B01E090B805F090CA
:104AB000B905802F000F990BAA0BBB0B89839A8332
:104AC000AB83BC83CE010196F1DA88EC92E097FCCF
:104AD00003C0C4010E9491972ADB84E893E12CDB98
:104AE000C7010E94669723DB81E090E0A0E0B0E080
:104AF00089839A83AB83BC83CE010196D7DA82E89F
:104B000093E11ADB4AE0E416F1041CF480E893E137
:104B100013DB61E080E000DC2091350B3091360B37
:104B20004091370B5091380B6091560170915701AD
:104B300080915801909159010E941DF36B017C01F5
:104B40002091390B30913A0B40913B0B50913C0B2B
:104B500060915A0170915B0180915C0190915D01BF
:104B60000E941DF34B015C0120E030E0A901C70168
:104B7000B6010E9489EE20E030E040E05FEB87FD67
:104B800004C020E030E040E05FE3C701B6010E94CE
:104B90001DF30E94FCF3CB010E94E796D82E092F4B
:104BA00088E590E0A0E0B0E089839A83AB83BC8382
:104BB000CE0101967BDA112369F18D2D902FB7DAA2
:104BC0004CC0243631054CF48536910504F58A3005
:104BD000910534F48AE090E009C084369105BCF078
:104BE000883EE3E09E0714F087EE93E0281739072C
:104BF00009F4F5CE90931101809310011092E30512
:104C00001092E4051092E5051092E605E8CE84E6E0
:104C100090E0F0CF87E00E947C8F80FF17C0ED2CE2
:104C2000F02EF70181917F018823B9F08F320CF0CB
:104C30008FE3082E000C990BAA0BBB0B89839A8378
:104C4000AB83BC83CE01019631DAEBCF8091FA05BC
:104C500080FDB3CF8BE793E16FDA89E793E16CDAFC
:104C600020E030E0A901C501B4010E9489EE20E0F6
:104C700030E040E05FEB87FD04C020E030E040E042
:104C80005FE3C501B4010E941DF30E94FCF3CB0158
:104C90000E94E796D82E092F89E590E0A0E0B0E0C9
:104CA00089839A83AB83BC83CE010196FFD91123FC
:104CB00021F08D2D902F3BDA23C087E00E947C8F5E
:104CC00081FF17C0ED2CF02EF70181917F01882321
:104CD000B9F08F320CF08FE3082E000C990BAA0B61
:104CE000BB0B89839A83AB83BC83CE010196DED94B
:104CF000EBCF8091FA0581FDDCCF8BE793E11CDAE5
:104D000061E08CE009DB20913D0B30913E0B40913E
:104D10003F0B5091400B60915E0170915F0180915B
:104D20006001909161010E941DF36B017C0120E004
:104D300030E040E251E40E94EEEE20E030E048EC4A
:104D400052E40E94EEEE4B015C0120E030E0A9014C
:104D5000C701B6010E9489EE20E030E040EA50EC45
:104D600087FD04C020E030E040EA50E4C501B40112
:104D70000E941DF320E030E040E251E40E9494F3F1
:104D80000E94FCF36B017C0180E2F7FE09C0F09405
:104D9000E094D094C094C11CD11CE11CF11C8DE2A4
:104DA0008093C30360E2F0E1CF16F7E2DF06E1048F
:104DB000F1048CF0C701B60120E137E240E050E099
:104DC0000E9486F2CA01B9012AE030E040E050E0DA
:104DD0000E9486F2605D6093C40360E248EEC416F0
:104DE00043E0D406E104F1048CF0C701B60128EEDB
:104DF00033E040E050E00E9486F2CA01B9012AE0A7
:104E000030E040E050E00E9486F2605D6093C503B0
:104E1000C701B60124E630E040E050E00E9486F28F
:104E20009AE0892E912CA12CB12CCA01B901A501BF
:104E300094010E9486F2605D6093C603C701B601CB
:104E4000A50194010E9486F2062FCA01B901A501AD
:104E500094010E9486F2002309F47CC08EE28093C4
:104E6000C703605D6093C803005D0093C9038AE5D2
:104E700090E0A0E0B0E089839A83AB83BC83CE014D
:104E8000019614D9112309F477C083EC93E04FD92C
:104E900086E090E0A0E0B0E089839A83AB83BC8396
:104EA000AE014F5F5F4F62E080E039DD809110011D
:104EB000909111010E9491973AD98FE693E13CD9E4
:104EC00086E08093780382E08093770380916F017E
:104ED00090917001A0917101B091720189839A83C0
:104EE000AB83BC830E94951B909176038917D9F000
:104EF0000E94951B80937603809175038F5F8230AB
:104F000008F05FC080937503E0917503F0E0EE0F49
:104F1000FF1F81E090E08C0F9D1FE80FF91F0190AB
:104F2000F081E02D099563E080E0F6D98AEE9FE0FC
:104F30000E94531F182F44E150E064EC78E18AEEA0
:104F40009FE0B7D8143108F01BCD8DE693E1F4D87B
:104F50001F5FF8CF662351F08EE28093C703605D38
:104F60006093C80380E28093C90381CF80E280937D
:104F7000C8038093C703F6CF87E00E947C8F82FF2F
:104F800018C003EC13E0F80181918F01882309F424
:104F90007FCF8F320CF08FE3082E000C990BAA0BF9
:104FA000BB0B89839A83AB83BC83CE0101967ED8E9
:104FB000EACF8091FA0582FD68CF81E793E1BCD802
:104FC00067CF10927503A0CF8F929F92AF92BF923E
:104FD000CF92DF92EF92FF920F931F93CF93DF93C5
:104FE00000D000D0CDB7DEB76C017B0181E08093AB
:104FF0000B018090D6059090D705A090D405B09075
:10500000D5051091D80561E080E086D903E19401CF
:10501000A501612FC60195D8182FE114F104E9F01C
:105020008BE193E189D8C7010E94531F8F5F115014
:1050300061E0181708F462E000E210E020E030E0E0
:1050400009831A832B833C83AE014F5F5F4F94E14A
:10505000981B892F64DCC7016AD80F900F900F90BE
:105060000F90DF91CF911F910F91FF90EF90DF9004
:10507000CF90BF90AF909F908F9008950F931F9304
:10508000CF93DF93FC01EB018091E3059091E40560
:10509000A091E505B091E605B7FF08C01092E305C1
:1050A0001092E4051092E5051092E6058091E7055F
:1050B0009091E805A091E905B091EA054091E305DA
:1050C0005091E4056091E5057091E6058417950718
:1050D000A607B70744F48093E3059093E405A093F3
:1050E000E505B093E605809166018823D9F06091CB
:1050F000E3057091E4058091E5059091E605009146
:10510000EB051091EC052091ED053091EE05600F57
:10511000711F821F931F0995BC018091F105909129
:10512000F20552DF8091CE05811108C08091E00523
:105130008823D1F1809166018823B1F18091EF0538
:105140009091F0050097B1F04091E3055091E4058E
:105150006091E5057091E6050091EB051091EC0575
:105160002091ED053091EE05400F511F621F731F16
:10517000FE010995E091E105F091E205309741F0DB
:105180008091E005811103C08091CE0581110995C0
:105190008091CE051092CE05882331F0DF91CF911A
:1051A0001F910F910C94ED1FDF91CF911F910F91E3
:1051B000089562E378E186E498E160CF6FE478E1F6
:1051C0008FE79BE15BCF6EE178E183E698E156CF14
:1051D0006CE678E187E39BE151CF62E878E183E711
:1051E0009BE14CCF66E978E18CE79BE147CF64EA2D
:1051F00078E188EB98E142CF9F92AF92BF92CF9235
:10520000DF92EF92FF920F931F93CF93DF9300D023
:1052100000D0CDB7DEB7982EB62E6A017901A02E48
:105220002115310509F475C0C9010023A9F10E94B7
:10523000451F182F8EE390E0A0E0B0E0911004C06D
:1052400080E290E0A0E0B0E089839A83AB83BC83E6
:10525000AE014F5F5F4F6B2D80E061DB02E1011B10
:105260002091D6053091D7054091D4055091D505B0
:105270006091D805C6010E94A120082F1123C1F01A
:1052800089E193E10E949C20002349F087E193E1AA
:105290000E949C200150F8CF0E94531FCACFAA2021
:1052A000B9F04FEF5FEF61EC78E1C7010E94592040
:1052B0000F900F900F900F90DF91CF911F910F9152
:1052C000FF90EF90DF90CF90BF90AF909F900895A8
:1052D000C7010E949720ECCF8EE390E0A0E0B0E001
:1052E00089839A83AB83BC83AE014F5F5F4F6B2D85
:1052F00080E015DB2091D6053091D7054091D4058B
:105300005091D50502E16091D805C6010E94A12007
:10531000CFCF8111E1CF10E093CFEF92FF920F93A7
:105320001F93CF93DF9300D000D0CDB7DEB77A01C3
:10533000102F811101C020E2822F220F990BAA0B9E
:10534000BB0B89839A83AB83BC83AE014F5F5F4FF6
:1053500080E0E5DA2091D6053091D7054091D4055B
:105360005091D50502E16091D805C7010E94A120A6
:10537000082F002331F085E193E10E949C20015029
:10538000F8CF012F110F110B220B330B09831A8356
:105390002B833C83CE0101960E9456200F900F90E4
:1053A0000F900F90DF91CF911F910F91FF90EF9091
:1053B00008958F929F92AF92BF92CF92DF92EF9219
:1053C000FF920F931F93CF93DF93CDB7DEB7609714
:1053D0000FB6F894DEBF0FBECDBF80E1E3E7F1E08A
:1053E000DE01119601900D928A95E1F761E081E06E
:1053F0000E94C21D8090D905C12CD82CDC0CA1F4D0
:105400008091D305882309F4C6C080916601882362
:1054100059F081E09091D305911180E003E023E001
:105420004FED54E16C2D79DFAA24A394B12CDA104E
:105430002EC08FEF8A0D8093D8051092D705109259
:10544000D6051092D5051092D4058091D3058D15FF
:1054500009F4C2C0809166018823C9F011E08091EF
:10546000D3058D1110E0F501EE0FFF1FEE0FFF1FAA
:10547000EF5CF94F60A171A182A193A10E94401B32
:1054800000E09C0142E654E16C2D812FB5DE9A2CA0
:1054900081E08A0D9FEFA91AB90A94E0A916B10418
:1054A00031F6D8122AC083E08093D8051092D70530
:1054B0001092D6051092D5051092D4058091D3058F
:1054C0008D1509F4B3C0809166018823B1F011E015
:1054D0008091D3058D1110E0609161067091620694
:1054E00080916306909164060E94401B00E09C013D
:1054F00042E654E16C2D812F7FDE82E0890D8D1113
:105500001FC08091D3058D1509F4AEC0809166014E
:105510008823B1F011E08091D3058D1110E06091E6
:1055200071067091720680917306909174060E94C4
:10553000401B00E09C0145E554E16C2D812F5CDEB1
:1055400083E0890D8D111FC08091D3058D1509F45D
:10555000A8C0809166018823B1F011E08091D30545
:105560008D1110E060917506709176068091770636
:10557000909178060E94401B00E09C0144E454E1B5
:105580006C2D812F39DEC39484E0C81236CF890D8B
:105590008093CD050EC08091CE051092CE05882354
:1055A00009F433CF0E94ED1F8091F305882309F49D
:1055B0002CCF60960FB6F894DEBF0FBECDBFDF9143
:1055C000CF911F910F91FF90EF90DF90CF90BF9000
:1055D000AF909F908F9008958091CE051092CE0548
:1055E000882309F437CF0E94F7CCB501660F771FE7
:1055F000660F771FFB01349781E090E08C0F9D1FB1
:10560000E80FF91FE080F180028113816F5A794F12
:1056100020E030E040E85FE382E694E10E9476CD4E
:105620008091F305882309F415CFC3CF8091CE056F
:105630001092CE05882309F446CF0E94F7CCE12CC6
:105640001CE3F12E0CE116E420E030E040E85FE3DB
:1056500061E676E082E694E10E9476CD8091F305E2
:10566000882309F430CFA5CF8091CE051092CE05C6
:10567000882309F44BCF0E94F7CCE12C1CE3F12ED8
:105680000CE116E420E030E0A90161E776E085E571
:1056900094E10E9476CD8091F305882309F436CFFA
:1056A00088CF8091CE051092CE05882309F451CF82
:1056B0000E94F7CCE12C1CE3F12E0CE116E420E073
:1056C00030E0A90165E776E084E494E10E9476CDBC
:1056D0008091F305882309F43CCF6BCF2F923F9242
:1056E0004F925F926F927F928F929F92AF92BF92F2
:1056F000CF92DF92EF92FF920F931F93CF93DF939E
:1057000000D000D000D0CDB7DEB7609131067091E7
:10571000320680913306909134060E948DEEB62EAB
:10572000C72ED82E192F60913506709136068091BC
:105730003706909138060E948DEE7B018D83998308
:105740009B01AC016B2D7C2D8D2D912F0E9489EE3C
:1057500087FD04C0EB2CFC2CDD8219836091390697
:1057600070913A0680913B0690913C060E948DEE26
:10577000462E772E682E592E97014D8159810E9411
:1057800080F4181624F04E2C7F2C6D80598061E037
:1057900081E00E94C21D2091D9052E831D82222402
:1057A000239442E0342E8E81811144C08091D30530
:1057B0008823D9F080916601882359F081E0909187
:1057C000D305911180E003E023E04FED54E16D81BA
:1057D000A4DD8E818F5F8E832D812F5F2D832430FA
:1057E00011F788E08093CD050CC08091CE05109212
:1057F000CE058823F9F20E94ED1F8091F3058823DE
:10580000C9F226960FB6F894DEBF0FBECDBFDF916A
:10581000CF911F910F91FF90EF90DF90CF90BF90AD
:10582000AF909F908F907F906F905F904F903F9040
:105830002F9008952E81213009F07EC08091D305EC
:105840008130E1F080916601882319F211E08091A6
:10585000D305813009F010E060916506709166060D
:1058600080916706909168060E94401B00E09C01B1
:1058700041EA54E16D81812FBFDCABCF8091CE0531
:105880001092CE058823F1F20E94F7CC2AE037ED82
:1058900043E25DE3642D772D862D952D0E94EEEE7B
:1058A0004B015C0120E030E040E05FE40E9489EEC3
:1058B00087FD05C0812C912CA12C3FE4B32E2AE05A
:1058C00037ED43E25DE36091650670916606809175
:1058D0006706909168060E94EEEE20E030E040E816
:1058E0005FE30E941CF30E9401F469837A838B8337
:1058F0009C83C501B4010E94FCF37B018C0121E073
:10590000E21AF10801091109912C812C2DEEA22E29
:1059100028E2B22EC980DA8021E030E040E050E099
:1059200065E676E081EA94E10E9403CD8091F3057B
:10593000882309F487CF65CF8E81823009F08FC12B
:105940008091D3058230D1F080916601882309F4DB
:1059500040CF11E08091D305823009F010E06091D2
:10596000690670916A0680916B0690916C060E94A0
:10597000401B00E09C0143E954E17CCF8091CE05BF
:105980001092CE05882301F30E94F7CC60913D066A
:1059900070913E0680913F06909140060E948DEEE8
:1059A0007B018C0120E030E048EC52E469E676E0CF
:1059B00083E994E10E9476CD8091F305882321F25A
:1059C00020CF8091D3058330D1F080916601882368
:1059D00009F4FFCE11E08091D305833009F010E087
:1059E00060916D0670916E0680916F0690917006C1
:1059F0000E94401B00E09C0146E854E13BCF8091AF
:105A0000CE051092CE05882301F30E94F7CC2AE040
:105A100037ED43E25DE3642D772D862D952D0E94B1
:105A2000EEEE4B015C0120E030E040E05FE40E94DC
:105A300089EE87FD05C0812C912CA12C9FE4B92E05
:105A40002AE037ED43E25DE360916D0670916E06EA
:105A500080916F06909170060E94EEEE20E030E09B
:105A600040E85FE30E941CF30E9401F469837A839B
:105A70008B839C83C501B4010E94FCF37B018C01E4
:105A800021E0E21AF10801091109912C812C8DEE17
:105A9000A82E88E2B82EC980DA8021E030E040E00C
:105AA00050E06DE676E086E894E10E9403CD8091B7
:105AB000F305882309F489CFA4CE1092D80510925B
:105AC000D7051092D6051092D5051092D405809175
:105AD000D3058430E1F080916601882309F479CE02
